{
  "contractName": "Controller",
  "abi": [
    {
      "anonymous": false,
      "inputs": [
        {
          "indexed": true,
          "internalType": "address",
          "name": "previousOwner",
          "type": "address"
        },
        {
          "indexed": true,
          "internalType": "address",
          "name": "newOwner",
          "type": "address"
        }
      ],
      "name": "OwnershipTransferred",
      "type": "event"
    },
    {
      "inputs": [
        {
          "internalType": "uint256",
          "name": "",
          "type": "uint256"
        }
      ],
      "name": "index",
      "outputs": [
        {
          "internalType": "address",
          "name": "_wallet",
          "type": "address"
        },
        {
          "internalType": "address",
          "name": "_smartContract",
          "type": "address"
        }
      ],
      "stateMutability": "view",
      "type": "function",
      "constant": true
    },
    {
      "inputs": [],
      "name": "indexsCount",
      "outputs": [
        {
          "internalType": "uint256",
          "name": "",
          "type": "uint256"
        }
      ],
      "stateMutability": "view",
      "type": "function",
      "constant": true
    },
    {
      "inputs": [],
      "name": "owner",
      "outputs": [
        {
          "internalType": "address",
          "name": "",
          "type": "address"
        }
      ],
      "stateMutability": "view",
      "type": "function",
      "constant": true
    },
    {
      "inputs": [],
      "name": "renounceOwnership",
      "outputs": [],
      "stateMutability": "nonpayable",
      "type": "function"
    },
    {
      "inputs": [
        {
          "internalType": "address",
          "name": "newOwner",
          "type": "address"
        }
      ],
      "name": "transferOwnership",
      "outputs": [],
      "stateMutability": "nonpayable",
      "type": "function"
    },
    {
      "inputs": [
        {
          "internalType": "address",
          "name": "_wallet",
          "type": "address"
        },
        {
          "internalType": "address",
          "name": "_smartContract",
          "type": "address"
        }
      ],
      "name": "addIndex",
      "outputs": [],
      "stateMutability": "nonpayable",
      "type": "function"
    },
    {
      "inputs": [
        {
          "internalType": "uint256",
          "name": "_id",
          "type": "uint256"
        },
        {
          "internalType": "address",
          "name": "_wallet",
          "type": "address"
        },
        {
          "internalType": "address",
          "name": "_smartContract",
          "type": "address"
        }
      ],
      "name": "modifyIndex",
      "outputs": [],
      "stateMutability": "nonpayable",
      "type": "function"
    },
    {
      "inputs": [
        {
          "internalType": "uint256",
          "name": "_id",
          "type": "uint256"
        }
      ],
      "name": "removeIndex",
      "outputs": [],
      "stateMutability": "nonpayable",
      "type": "function"
    },
    {
      "inputs": [],
      "name": "getIndexs",
      "outputs": [
        {
          "components": [
            {
              "internalType": "address",
              "name": "_wallet",
              "type": "address"
            },
            {
              "internalType": "address",
              "name": "_smartContract",
              "type": "address"
            }
          ],
          "internalType": "struct Controller.Index[]",
          "name": "",
          "type": "tuple[]"
        }
      ],
      "stateMutability": "view",
      "type": "function",
      "constant": true
    },
    {
      "inputs": [
        {
          "internalType": "uint256",
          "name": "_id",
          "type": "uint256"
        }
      ],
      "name": "depositToIndex",
      "outputs": [
        {
          "internalType": "bool",
          "name": "",
          "type": "bool"
        }
      ],
      "stateMutability": "payable",
      "type": "function",
      "payable": true
    }
  ],
  "bytecode": "0x6080604052600060025534801561001557600080fd5b5060006100266100c960201b60201c565b9050806000806101000a81548173ffffffffffffffffffffffffffffffffffffffff021916908373ffffffffffffffffffffffffffffffffffffffff1602179055508073ffffffffffffffffffffffffffffffffffffffff16600073ffffffffffffffffffffffffffffffffffffffff167f8be0079c531659141344cd1fd0a4f28419497f9722a3daafe3b4186f6b6457e060405160405180910390a3506100d1565b600033905090565b611461806100e06000396000f3fe6080604052600436106100905760003560e01c80638da5cb5b116100595780638da5cb5b14610169578063a93a70cc14610194578063ee77ab56146101bd578063f2fde38b146101ed578063f53d9ec11461021657610090565b806288fed7146100955780631b6da6cd146100be578063335932fc146100e95780635b165eb914610127578063715018a614610152575b600080fd5b3480156100a157600080fd5b506100bc60048036038101906100b79190610e66565b61023f565b005b3480156100ca57600080fd5b506100d36103c0565b6040516100e091906111dd565b60405180910390f35b3480156100f557600080fd5b50610110600480360381019061010b9190610ecb565b6103c6565b60405161011e92919061110e565b60405180910390f35b34801561013357600080fd5b5061013c61042a565b6040516101499190611160565b60405180910390f35b34801561015e57600080fd5b506101676105e2565b005b34801561017557600080fd5b5061017e61071c565b60405161018b91906110f3565b60405180910390f35b3480156101a057600080fd5b506101bb60048036038101906101b69190610f1d565b610745565b005b6101d760048036038101906101d29190610ecb565b6108ab565b6040516101e49190611182565b60405180910390f35b3480156101f957600080fd5b50610214600480360381019061020f9190610e3d565b610af5565b005b34801561022257600080fd5b5061023d60048036038101906102389190610ecb565b610c9e565b005b610247610d9b565b73ffffffffffffffffffffffffffffffffffffffff1661026561071c565b73ffffffffffffffffffffffffffffffffffffffff16146102bb576040517f08c379a00000000000000000000000000000000000000000000000000000000081526004016102b2906111bd565b60405180910390fd5b60405180604001604052808373ffffffffffffffffffffffffffffffffffffffff1681526020018273ffffffffffffffffffffffffffffffffffffffff1681525060016000600254815260200190815260200160002060008201518160000160006101000a81548173ffffffffffffffffffffffffffffffffffffffff021916908373ffffffffffffffffffffffffffffffffffffffff16021790555060208201518160010160006101000a81548173ffffffffffffffffffffffffffffffffffffffff021916908373ffffffffffffffffffffffffffffffffffffffff1602179055509050506001600260008282546103b59190611242565b925050819055505050565b60025481565b60016020528060005260406000206000915090508060000160009054906101000a900473ffffffffffffffffffffffffffffffffffffffff16908060010160009054906101000a900473ffffffffffffffffffffffffffffffffffffffff16905082565b6060600060025467ffffffffffffffff811115610470577f4e487b7100000000000000000000000000000000000000000000000000000000600052604160045260246000fd5b6040519080825280602002602001820160405280156104a957816020015b610496610da3565b81526020019060019003908161048e5790505b50905060005b6002548110156105da57600160008281526020019081526020016000206040518060400160405290816000820160009054906101000a900473ffffffffffffffffffffffffffffffffffffffff1673ffffffffffffffffffffffffffffffffffffffff1673ffffffffffffffffffffffffffffffffffffffff1681526020016001820160009054906101000a900473ffffffffffffffffffffffffffffffffffffffff1673ffffffffffffffffffffffffffffffffffffffff1673ffffffffffffffffffffffffffffffffffffffff16815250508282815181106105bc577f4e487b7100000000000000000000000000000000000000000000000000000000600052603260045260246000fd5b602002602001018190525080806105d29061136e565b9150506104af565b508091505090565b6105ea610d9b565b73ffffffffffffffffffffffffffffffffffffffff1661060861071c565b73ffffffffffffffffffffffffffffffffffffffff161461065e576040517f08c379a0000000000000000000000000000000000000000000000000000000008152600401610655906111bd565b60405180910390fd5b600073ffffffffffffffffffffffffffffffffffffffff1660008054906101000a900473ffffffffffffffffffffffffffffffffffffffff1673ffffffffffffffffffffffffffffffffffffffff167f8be0079c531659141344cd1fd0a4f28419497f9722a3daafe3b4186f6b6457e060405160405180910390a360008060006101000a81548173ffffffffffffffffffffffffffffffffffffffff021916908373ffffffffffffffffffffffffffffffffffffffff160217905550565b60008060009054906101000a900473ffffffffffffffffffffffffffffffffffffffff16905090565b61074d610d9b565b73ffffffffffffffffffffffffffffffffffffffff1661076b61071c565b73ffffffffffffffffffffffffffffffffffffffff16146107c1576040517f08c379a00000000000000000000000000000000000000000000000000000000081526004016107b8906111bd565b60405180910390fd5b60405180604001604052808373ffffffffffffffffffffffffffffffffffffffff1681526020018273ffffffffffffffffffffffffffffffffffffffff168152506001600085815260200190815260200160002060008201518160000160006101000a81548173ffffffffffffffffffffffffffffffffffffffff021916908373ffffffffffffffffffffffffffffffffffffffff16021790555060208201518160010160006101000a81548173ffffffffffffffffffffffffffffffffffffffff021916908373ffffffffffffffffffffffffffffffffffffffff160217905550905050505050565b600080600160008481526020019081526020016000206040518060400160405290816000820160009054906101000a900473ffffffffffffffffffffffffffffffffffffffff1673ffffffffffffffffffffffffffffffffffffffff1673ffffffffffffffffffffffffffffffffffffffff1681526020016001820160009054906101000a900473ffffffffffffffffffffffffffffffffffffffff1673ffffffffffffffffffffffffffffffffffffffff1673ffffffffffffffffffffffffffffffffffffffff16815250509050806000015173ffffffffffffffffffffffffffffffffffffffff166108fc349081150290604051600060405180830381858888f193505050501580156109c4573d6000803e3d6000fd5b506000816020015190506000348273ffffffffffffffffffffffffffffffffffffffff166398d5fdca6040518163ffffffff1660e01b815260040160206040518083038186803b158015610a1757600080fd5b505afa158015610a2b573d6000803e3d6000fd5b505050506040513d601f19601f82011682018060405250810190610a4f9190610ef4565b610a599190611298565b90508173ffffffffffffffffffffffffffffffffffffffff166340c10f1933836040518363ffffffff1660e01b8152600401610a96929190611137565b602060405180830381600087803b158015610ab057600080fd5b505af1158015610ac4573d6000803e3d6000fd5b505050506040513d601f19601f82011682018060405250810190610ae89190610ea2565b5060019350505050919050565b610afd610d9b565b73ffffffffffffffffffffffffffffffffffffffff16610b1b61071c565b73ffffffffffffffffffffffffffffffffffffffff1614610b71576040517f08c379a0000000000000000000000000000000000000000000000000000000008152600401610b68906111bd565b60405180910390fd5b600073ffffffffffffffffffffffffffffffffffffffff168173ffffffffffffffffffffffffffffffffffffffff161415610be1576040517f08c379a0000000000000000000000000000000000000000000000000000000008152600401610bd89061119d565b60405180910390fd5b8073ffffffffffffffffffffffffffffffffffffffff1660008054906101000a900473ffffffffffffffffffffffffffffffffffffffff1673ffffffffffffffffffffffffffffffffffffffff167f8be0079c531659141344cd1fd0a4f28419497f9722a3daafe3b4186f6b6457e060405160405180910390a3806000806101000a81548173ffffffffffffffffffffffffffffffffffffffff021916908373ffffffffffffffffffffffffffffffffffffffff16021790555050565b610ca6610d9b565b73ffffffffffffffffffffffffffffffffffffffff16610cc461071c565b73ffffffffffffffffffffffffffffffffffffffff1614610d1a576040517f08c379a0000000000000000000000000000000000000000000000000000000008152600401610d11906111bd565b60405180910390fd5b60016000828152602001908152602001600020600080820160006101000a81549073ffffffffffffffffffffffffffffffffffffffff02191690556001820160006101000a81549073ffffffffffffffffffffffffffffffffffffffff02191690555050600160026000828254610d9191906112f2565b9250508190555050565b600033905090565b6040518060400160405280600073ffffffffffffffffffffffffffffffffffffffff168152602001600073ffffffffffffffffffffffffffffffffffffffff1681525090565b600081359050610df8816113e6565b92915050565b600081519050610e0d816113fd565b92915050565b600081359050610e2281611414565b92915050565b600081519050610e3781611414565b92915050565b600060208284031215610e4f57600080fd5b6000610e5d84828501610de9565b91505092915050565b60008060408385031215610e7957600080fd5b6000610e8785828601610de9565b9250506020610e9885828601610de9565b9150509250929050565b600060208284031215610eb457600080fd5b6000610ec284828501610dfe565b91505092915050565b600060208284031215610edd57600080fd5b6000610eeb84828501610e13565b91505092915050565b600060208284031215610f0657600080fd5b6000610f1484828501610e28565b91505092915050565b600080600060608486031215610f3257600080fd5b6000610f4086828701610e13565b9350506020610f5186828701610de9565b9250506040610f6286828701610de9565b9150509250925092565b6000610f7883836110b5565b60408301905092915050565b610f8d81611326565b82525050565b610f9c81611326565b82525050565b6000610fad82611208565b610fb78185611220565b9350610fc2836111f8565b8060005b83811015610ff3578151610fda8882610f6c565b9750610fe583611213565b925050600181019050610fc6565b5085935050505092915050565b61100981611338565b82525050565b600061101c602683611231565b91507f4f776e61626c653a206e6577206f776e657220697320746865207a65726f206160008301527f64647265737300000000000000000000000000000000000000000000000000006020830152604082019050919050565b6000611082602083611231565b91507f4f776e61626c653a2063616c6c6572206973206e6f7420746865206f776e65726000830152602082019050919050565b6040820160008201516110cb6000850182610f84565b5060208201516110de6020850182610f84565b50505050565b6110ed81611364565b82525050565b60006020820190506111086000830184610f93565b92915050565b60006040820190506111236000830185610f93565b6111306020830184610f93565b9392505050565b600060408201905061114c6000830185610f93565b61115960208301846110e4565b9392505050565b6000602082019050818103600083015261117a8184610fa2565b905092915050565b60006020820190506111976000830184611000565b92915050565b600060208201905081810360008301526111b68161100f565b9050919050565b600060208201905081810360008301526111d681611075565b9050919050565b60006020820190506111f260008301846110e4565b92915050565b6000819050602082019050919050565b600081519050919050565b6000602082019050919050565b600082825260208201905092915050565b600082825260208201905092915050565b600061124d82611364565b915061125883611364565b9250827fffffffffffffffffffffffffffffffffffffffffffffffffffffffffffffffff0382111561128d5761128c6113b7565b5b828201905092915050565b60006112a382611364565b91506112ae83611364565b9250817fffffffffffffffffffffffffffffffffffffffffffffffffffffffffffffffff04831182151516156112e7576112e66113b7565b5b828202905092915050565b60006112fd82611364565b915061130883611364565b92508282101561131b5761131a6113b7565b5b828203905092915050565b600061133182611344565b9050919050565b60008115159050919050565b600073ffffffffffffffffffffffffffffffffffffffff82169050919050565b6000819050919050565b600061137982611364565b91507fffffffffffffffffffffffffffffffffffffffffffffffffffffffffffffffff8214156113ac576113ab6113b7565b5b600182019050919050565b7f4e487b7100000000000000000000000000000000000000000000000000000000600052601160045260246000fd5b6113ef81611326565b81146113fa57600080fd5b50565b61140681611338565b811461141157600080fd5b50565b61141d81611364565b811461142857600080fd5b5056fea2646970667358221220ffc7a7b18b1094e987d71be05bc2336d11169ed3584b7ff51641087e6c60421664736f6c63430008000033",
  "immutableReferences": {},
  "source": "// SPDX-License-Identifier: MIT\npragma solidity ^0.8.0;\n\nimport \"@openzeppelin/contracts/access/Ownable.sol\";\nimport \"./CSTokenFactory.sol\";\n\ncontract Controller is Ownable {\n   \n    mapping(uint256 => Index) public index;\n    \n    uint256 public indexsCount = 0;\n    \n    struct Index {\n        address _wallet;\n        address _smartContract;\n    }\n    \n    function addIndex(address _wallet, address _smartContract) public onlyOwner {\n        index[indexsCount] = Index(_wallet, _smartContract);\n        indexsCount += 1;\n    }\n    \n    function modifyIndex(uint256 _id, address _wallet, address _smartContract) public onlyOwner {\n        index[_id] = Index(_wallet, _smartContract);\n    }\n    \n    function removeIndex(uint256 _id) public onlyOwner {\n        delete index[_id];\n        indexsCount -= 1;\n    }\n    \n    function getIndexs() public view returns(Index[] memory) {\n        Index[] memory indexsList = new Index[](indexsCount);\n        for (uint i = 0; i < indexsCount; i++) {\n            indexsList[i] = index[i];\n        }\n        return indexsList;\n    }\n    \n    function depositToIndex(uint256 _id) public payable returns(bool) {\n        Index memory selectedIndex = index[_id];\n        payable(selectedIndex._wallet).transfer(msg.value);\n        CSTokenFactory token = CSTokenFactory(selectedIndex._smartContract);\n        uint256 amount = token.getPrice() * msg.value;\n        token.mint(msg.sender, amount);\n        return true;\n    }\n    \n}",
  "sourcePath": "/Users/santiagomarcano/Documents/common-sense/dapp/contracts/Controller.sol",
  "compiler": {
    "name": "solc",
    "version": "0.8.0+commit.c7dfd78e.Emscripten.clang"
  },
  "schemaVersion": "3.3.4",
  "updatedAt": "2021-05-15T09:09:57.585Z",
  "networkType": "ethereum",
  "devdoc": {
    "kind": "dev",
    "methods": {
      "owner()": {
        "details": "Returns the address of the current owner."
      },
      "renounceOwnership()": {
        "details": "Leaves the contract without owner. It will not be possible to call `onlyOwner` functions anymore. Can only be called by the current owner. NOTE: Renouncing ownership will leave the contract without an owner, thereby removing any functionality that is only available to the owner."
      },
      "transferOwnership(address)": {
        "details": "Transfers ownership of the contract to a new account (`newOwner`). Can only be called by the current owner."
      }
    },
    "version": 1
  },
  "userdoc": {
    "kind": "user",
    "methods": {},
    "version": 1
  }
}