{
  "contractName": "CSTokenFactory",
  "abi": [
    {
      "inputs": [
        {
          "internalType": "string",
          "name": "_name",
          "type": "string"
        },
        {
          "internalType": "string",
          "name": "_symbol",
          "type": "string"
        },
        {
          "internalType": "address",
          "name": "_owner",
          "type": "address"
        },
        {
          "internalType": "address",
          "name": "_wallet",
          "type": "address"
        }
      ],
      "stateMutability": "nonpayable",
      "type": "constructor"
    },
    {
      "anonymous": false,
      "inputs": [
        {
          "indexed": true,
          "internalType": "address",
          "name": "owner",
          "type": "address"
        },
        {
          "indexed": true,
          "internalType": "address",
          "name": "spender",
          "type": "address"
        },
        {
          "indexed": false,
          "internalType": "uint256",
          "name": "value",
          "type": "uint256"
        }
      ],
      "name": "Approval",
      "type": "event"
    },
    {
      "anonymous": false,
      "inputs": [
        {
          "indexed": true,
          "internalType": "address",
          "name": "previousOwner",
          "type": "address"
        },
        {
          "indexed": true,
          "internalType": "address",
          "name": "newOwner",
          "type": "address"
        }
      ],
      "name": "OwnershipTransferred",
      "type": "event"
    },
    {
      "anonymous": false,
      "inputs": [
        {
          "indexed": true,
          "internalType": "address",
          "name": "from",
          "type": "address"
        },
        {
          "indexed": true,
          "internalType": "address",
          "name": "to",
          "type": "address"
        },
        {
          "indexed": false,
          "internalType": "uint256",
          "name": "value",
          "type": "uint256"
        }
      ],
      "name": "Transfer",
      "type": "event"
    },
    {
      "inputs": [
        {
          "internalType": "address",
          "name": "owner",
          "type": "address"
        },
        {
          "internalType": "address",
          "name": "spender",
          "type": "address"
        }
      ],
      "name": "allowance",
      "outputs": [
        {
          "internalType": "uint256",
          "name": "",
          "type": "uint256"
        }
      ],
      "stateMutability": "view",
      "type": "function",
      "constant": true
    },
    {
      "inputs": [
        {
          "internalType": "address",
          "name": "spender",
          "type": "address"
        },
        {
          "internalType": "uint256",
          "name": "amount",
          "type": "uint256"
        }
      ],
      "name": "approve",
      "outputs": [
        {
          "internalType": "bool",
          "name": "",
          "type": "bool"
        }
      ],
      "stateMutability": "nonpayable",
      "type": "function"
    },
    {
      "inputs": [
        {
          "internalType": "address",
          "name": "account",
          "type": "address"
        }
      ],
      "name": "balanceOf",
      "outputs": [
        {
          "internalType": "uint256",
          "name": "",
          "type": "uint256"
        }
      ],
      "stateMutability": "view",
      "type": "function",
      "constant": true
    },
    {
      "inputs": [],
      "name": "decimals",
      "outputs": [
        {
          "internalType": "uint8",
          "name": "",
          "type": "uint8"
        }
      ],
      "stateMutability": "view",
      "type": "function",
      "constant": true
    },
    {
      "inputs": [
        {
          "internalType": "address",
          "name": "spender",
          "type": "address"
        },
        {
          "internalType": "uint256",
          "name": "subtractedValue",
          "type": "uint256"
        }
      ],
      "name": "decreaseAllowance",
      "outputs": [
        {
          "internalType": "bool",
          "name": "",
          "type": "bool"
        }
      ],
      "stateMutability": "nonpayable",
      "type": "function"
    },
    {
      "inputs": [
        {
          "internalType": "address",
          "name": "spender",
          "type": "address"
        },
        {
          "internalType": "uint256",
          "name": "addedValue",
          "type": "uint256"
        }
      ],
      "name": "increaseAllowance",
      "outputs": [
        {
          "internalType": "bool",
          "name": "",
          "type": "bool"
        }
      ],
      "stateMutability": "nonpayable",
      "type": "function"
    },
    {
      "inputs": [],
      "name": "name",
      "outputs": [
        {
          "internalType": "string",
          "name": "",
          "type": "string"
        }
      ],
      "stateMutability": "view",
      "type": "function",
      "constant": true
    },
    {
      "inputs": [],
      "name": "owner",
      "outputs": [
        {
          "internalType": "address",
          "name": "",
          "type": "address"
        }
      ],
      "stateMutability": "view",
      "type": "function",
      "constant": true
    },
    {
      "inputs": [],
      "name": "price",
      "outputs": [
        {
          "internalType": "uint256",
          "name": "",
          "type": "uint256"
        }
      ],
      "stateMutability": "view",
      "type": "function",
      "constant": true
    },
    {
      "inputs": [],
      "name": "renounceOwnership",
      "outputs": [],
      "stateMutability": "nonpayable",
      "type": "function"
    },
    {
      "inputs": [],
      "name": "symbol",
      "outputs": [
        {
          "internalType": "string",
          "name": "",
          "type": "string"
        }
      ],
      "stateMutability": "view",
      "type": "function",
      "constant": true
    },
    {
      "inputs": [],
      "name": "totalSupply",
      "outputs": [
        {
          "internalType": "uint256",
          "name": "",
          "type": "uint256"
        }
      ],
      "stateMutability": "view",
      "type": "function",
      "constant": true
    },
    {
      "inputs": [
        {
          "internalType": "address",
          "name": "recipient",
          "type": "address"
        },
        {
          "internalType": "uint256",
          "name": "amount",
          "type": "uint256"
        }
      ],
      "name": "transfer",
      "outputs": [
        {
          "internalType": "bool",
          "name": "",
          "type": "bool"
        }
      ],
      "stateMutability": "nonpayable",
      "type": "function"
    },
    {
      "inputs": [
        {
          "internalType": "address",
          "name": "sender",
          "type": "address"
        },
        {
          "internalType": "address",
          "name": "recipient",
          "type": "address"
        },
        {
          "internalType": "uint256",
          "name": "amount",
          "type": "uint256"
        }
      ],
      "name": "transferFrom",
      "outputs": [
        {
          "internalType": "bool",
          "name": "",
          "type": "bool"
        }
      ],
      "stateMutability": "nonpayable",
      "type": "function"
    },
    {
      "inputs": [
        {
          "internalType": "address",
          "name": "newOwner",
          "type": "address"
        }
      ],
      "name": "transferOwnership",
      "outputs": [],
      "stateMutability": "nonpayable",
      "type": "function"
    },
    {
      "inputs": [],
      "name": "wallet",
      "outputs": [
        {
          "internalType": "address",
          "name": "",
          "type": "address"
        }
      ],
      "stateMutability": "view",
      "type": "function",
      "constant": true
    },
    {
      "inputs": [],
      "name": "getPrice",
      "outputs": [
        {
          "internalType": "uint256",
          "name": "",
          "type": "uint256"
        }
      ],
      "stateMutability": "view",
      "type": "function",
      "constant": true
    },
    {
      "inputs": [
        {
          "internalType": "string",
          "name": "_symbol",
          "type": "string"
        },
        {
          "internalType": "string",
          "name": "_weight",
          "type": "string"
        },
        {
          "internalType": "address",
          "name": "_id",
          "type": "address"
        }
      ],
      "name": "addAsset",
      "outputs": [
        {
          "internalType": "bool",
          "name": "",
          "type": "bool"
        }
      ],
      "stateMutability": "nonpayable",
      "type": "function"
    },
    {
      "inputs": [
        {
          "internalType": "string",
          "name": "_symbol",
          "type": "string"
        },
        {
          "internalType": "string",
          "name": "_weight",
          "type": "string"
        },
        {
          "internalType": "address",
          "name": "_id",
          "type": "address"
        }
      ],
      "name": "modifyAsset",
      "outputs": [
        {
          "internalType": "bool",
          "name": "",
          "type": "bool"
        }
      ],
      "stateMutability": "nonpayable",
      "type": "function"
    },
    {
      "inputs": [
        {
          "internalType": "address",
          "name": "_buyer",
          "type": "address"
        },
        {
          "internalType": "uint256",
          "name": "amount",
          "type": "uint256"
        }
      ],
      "name": "mint",
      "outputs": [
        {
          "internalType": "bool",
          "name": "",
          "type": "bool"
        }
      ],
      "stateMutability": "nonpayable",
      "type": "function"
    },
    {
      "inputs": [],
      "name": "getAssets",
      "outputs": [
        {
          "components": [
            {
              "internalType": "string",
              "name": "symbol",
              "type": "string"
            },
            {
              "internalType": "string",
              "name": "weight",
              "type": "string"
            },
            {
              "internalType": "address",
              "name": "id",
              "type": "address"
            }
          ],
          "internalType": "struct CSTokenFactory.Asset[]",
          "name": "",
          "type": "tuple[]"
        }
      ],
      "stateMutability": "view",
      "type": "function",
      "constant": true
    }
  ],
  "bytecode": "0x6080604052662386f26fc100006007553480156200001c57600080fd5b5060405162002d6838038062002d688339818101604052810190620000429190620004b2565b838381600390805190602001906200005c92919062000379565b5080600490805190602001906200007592919062000379565b50505060006200008a6200018560201b60201c565b905080600560006101000a81548173ffffffffffffffffffffffffffffffffffffffff021916908373ffffffffffffffffffffffffffffffffffffffff1602179055508073ffffffffffffffffffffffffffffffffffffffff16600073ffffffffffffffffffffffffffffffffffffffff167f8be0079c531659141344cd1fd0a4f28419497f9722a3daafe3b4186f6b6457e060405160405180910390a35080600660006101000a81548173ffffffffffffffffffffffffffffffffffffffff021916908373ffffffffffffffffffffffffffffffffffffffff1602179055506200017b826200018d60201b60201c565b50505050620007ce565b600033905090565b6200019d6200018560201b60201c565b73ffffffffffffffffffffffffffffffffffffffff16620001c36200034f60201b60201c565b73ffffffffffffffffffffffffffffffffffffffff16146200021c576040517f08c379a000000000000000000000000000000000000000000000000000000000815260040162000213906200061c565b60405180910390fd5b600073ffffffffffffffffffffffffffffffffffffffff168173ffffffffffffffffffffffffffffffffffffffff1614156200028f576040517f08c379a00000000000000000000000000000000000000000000000000000000081526004016200028690620005fa565b60405180910390fd5b8073ffffffffffffffffffffffffffffffffffffffff16600560009054906101000a900473ffffffffffffffffffffffffffffffffffffffff1673ffffffffffffffffffffffffffffffffffffffff167f8be0079c531659141344cd1fd0a4f28419497f9722a3daafe3b4186f6b6457e060405160405180910390a380600560006101000a81548173ffffffffffffffffffffffffffffffffffffffff021916908373ffffffffffffffffffffffffffffffffffffffff16021790555050565b6000600560009054906101000a900473ffffffffffffffffffffffffffffffffffffffff16905090565b828054620003879062000720565b90600052602060002090601f016020900481019282620003ab5760008555620003f7565b82601f10620003c657805160ff1916838001178555620003f7565b82800160010185558215620003f7579182015b82811115620003f6578251825591602001919060010190620003d9565b5b5090506200040691906200040a565b5090565b5b80821115620004255760008160009055506001016200040b565b5090565b6000620004406200043a8462000672565b6200063e565b9050828152602081018484840111156200045957600080fd5b62000466848285620006ea565b509392505050565b6000815190506200047f81620007b4565b92915050565b600082601f8301126200049757600080fd5b8151620004a984826020860162000429565b91505092915050565b60008060008060808587031215620004c957600080fd5b600085015167ffffffffffffffff811115620004e457600080fd5b620004f28782880162000485565b945050602085015167ffffffffffffffff8111156200051057600080fd5b6200051e8782880162000485565b935050604062000531878288016200046e565b925050606062000544878288016200046e565b91505092959194509250565b60006200055f602683620006a5565b91507f4f776e61626c653a206e6577206f776e657220697320746865207a65726f206160008301527f64647265737300000000000000000000000000000000000000000000000000006020830152604082019050919050565b6000620005c7602083620006a5565b91507f4f776e61626c653a2063616c6c6572206973206e6f7420746865206f776e65726000830152602082019050919050565b60006020820190508181036000830152620006158162000550565b9050919050565b600060208201905081810360008301526200063781620005b8565b9050919050565b6000604051905081810181811067ffffffffffffffff8211171562000668576200066762000785565b5b8060405250919050565b600067ffffffffffffffff82111562000690576200068f62000785565b5b601f19601f8301169050602081019050919050565b600082825260208201905092915050565b6000620006c382620006ca565b9050919050565b600073ffffffffffffffffffffffffffffffffffffffff82169050919050565b60005b838110156200070a578082015181840152602081019050620006ed565b838111156200071a576000848401525b50505050565b600060028204905060018216806200073957607f821691505b6020821081141562000750576200074f62000756565b5b50919050565b7f4e487b7100000000000000000000000000000000000000000000000000000000600052602260045260246000fd5b7f4e487b7100000000000000000000000000000000000000000000000000000000600052604160045260246000fd5b620007bf81620006b6565b8114620007cb57600080fd5b50565b61258a80620007de6000396000f3fe608060405234801561001057600080fd5b50600436106101375760003560e01c806370a08231116100b8578063a035b1fe1161007c578063a035b1fe14610356578063a457c2d714610374578063a9059cbb146103a4578063bc2e7f56146103d4578063dd62ed3e14610404578063f2fde38b1461043457610137565b806370a08231146102c2578063715018a6146102f25780638da5cb5b146102fc57806395d89b411461031a57806398d5fdca1461033857610137565b8063313ce567116100ff578063313ce56714610208578063395093511461022657806340c10f1914610256578063521eb2731461028657806367e4ac2c146102a457610137565b806306fdde031461013c578063093b906c1461015a578063095ea7b31461018a57806318160ddd146101ba57806323b872dd146101d8575b600080fd5b610144610450565b604051610151919061208d565b60405180910390f35b610174600480360381019061016f9190611a69565b6104e2565b6040516101819190612072565b60405180910390f35b6101a4600480360381019061019f9190611a2d565b61072c565b6040516101b19190612072565b60405180910390f35b6101c261074a565b6040516101cf91906121ef565b60405180910390f35b6101f260048036038101906101ed91906119de565b610754565b6040516101ff9190612072565b60405180910390f35b610210610855565b60405161021d919061220a565b60405180910390f35b610240600480360381019061023b9190611a2d565b61085e565b60405161024d9190612072565b60405180910390f35b610270600480360381019061026b9190611a2d565b61090a565b60405161027d9190612072565b60405180910390f35b61028e61099c565b60405161029b9190612035565b60405180910390f35b6102ac6109c2565b6040516102b99190612050565b60405180910390f35b6102dc60048036038101906102d79190611979565b610b9b565b6040516102e991906121ef565b60405180910390f35b6102fa610be3565b005b610304610d20565b6040516103119190612035565b60405180910390f35b610322610d4a565b60405161032f919061208d565b60405180910390f35b610340610ddc565b60405161034d91906121ef565b60405180910390f35b61035e610de6565b60405161036b91906121ef565b60405180910390f35b61038e60048036038101906103899190611a2d565b610dec565b60405161039b9190612072565b60405180910390f35b6103be60048036038101906103b99190611a2d565b610ee0565b6040516103cb9190612072565b60405180910390f35b6103ee60048036038101906103e99190611a69565b610efe565b6040516103fb9190612072565b60405180910390f35b61041e600480360381019061041991906119a2565b611066565b60405161042b91906121ef565b60405180910390f35b61044e60048036038101906104499190611979565b6110ed565b005b60606003805461045f9061240d565b80601f016020809104026020016040519081016040528092919081815260200182805461048b9061240d565b80156104d85780601f106104ad576101008083540402835291602001916104d8565b820191906000526020600020905b8154815290600101906020018083116104bb57829003601f168201915b5050505050905090565b60006104ec611299565b73ffffffffffffffffffffffffffffffffffffffff1661050a610d20565b73ffffffffffffffffffffffffffffffffffffffff1614610560576040517f08c379a00000000000000000000000000000000000000000000000000000000081526004016105579061214f565b60405180910390fd5b60005b600880549050811015610720578273ffffffffffffffffffffffffffffffffffffffff16600882815481106105c1577f4e487b7100000000000000000000000000000000000000000000000000000000600052603260045260246000fd5b906000526020600020906003020160020160009054906101000a900473ffffffffffffffffffffffffffffffffffffffff1673ffffffffffffffffffffffffffffffffffffffff16141561070d5760405180606001604052808681526020018581526020018473ffffffffffffffffffffffffffffffffffffffff168152506008828154811061067a577f4e487b7100000000000000000000000000000000000000000000000000000000600052603260045260246000fd5b906000526020600020906003020160008201518160000190805190602001906106a4929190611844565b5060208201518160010190805190602001906106c1929190611844565b5060408201518160020160006101000a81548173ffffffffffffffffffffffffffffffffffffffff021916908373ffffffffffffffffffffffffffffffffffffffff1602179055509050505b80806107189061243f565b915050610563565b50600190509392505050565b6000610740610739611299565b84846112a1565b6001905092915050565b6000600254905090565b600061076184848461146c565b6000600160008673ffffffffffffffffffffffffffffffffffffffff1673ffffffffffffffffffffffffffffffffffffffff16815260200190815260200160002060006107ac611299565b73ffffffffffffffffffffffffffffffffffffffff1673ffffffffffffffffffffffffffffffffffffffff1681526020019081526020016000205490508281101561082c576040517f08c379a00000000000000000000000000000000000000000000000000000000081526004016108239061212f565b60405180910390fd5b61084985610838611299565b85846108449190612342565b6112a1565b60019150509392505050565b60006012905090565b600061090061086b611299565b848460016000610879611299565b73ffffffffffffffffffffffffffffffffffffffff1673ffffffffffffffffffffffffffffffffffffffff16815260200190815260200160002060008873ffffffffffffffffffffffffffffffffffffffff1673ffffffffffffffffffffffffffffffffffffffff168152602001908152602001600020546108fb91906122ec565b6112a1565b6001905092915050565b6000610914611299565b73ffffffffffffffffffffffffffffffffffffffff16610932610d20565b73ffffffffffffffffffffffffffffffffffffffff1614610988576040517f08c379a000000000000000000000000000000000000000000000000000000000815260040161097f9061214f565b60405180910390fd5b61099283836116eb565b6001905092915050565b600660009054906101000a900473ffffffffffffffffffffffffffffffffffffffff1681565b60606008805480602002602001604051908101604052809291908181526020016000905b82821015610b925783829060005260206000209060030201604051806060016040529081600082018054610a199061240d565b80601f0160208091040260200160405190810160405280929190818152602001828054610a459061240d565b8015610a925780601f10610a6757610100808354040283529160200191610a92565b820191906000526020600020905b815481529060010190602001808311610a7557829003601f168201915b50505050508152602001600182018054610aab9061240d565b80601f0160208091040260200160405190810160405280929190818152602001828054610ad79061240d565b8015610b245780601f10610af957610100808354040283529160200191610b24565b820191906000526020600020905b815481529060010190602001808311610b0757829003601f168201915b505050505081526020016002820160009054906101000a900473ffffffffffffffffffffffffffffffffffffffff1673ffffffffffffffffffffffffffffffffffffffff1673ffffffffffffffffffffffffffffffffffffffff1681525050815260200190600101906109e6565b50505050905090565b60008060008373ffffffffffffffffffffffffffffffffffffffff1673ffffffffffffffffffffffffffffffffffffffff168152602001908152602001600020549050919050565b610beb611299565b73ffffffffffffffffffffffffffffffffffffffff16610c09610d20565b73ffffffffffffffffffffffffffffffffffffffff1614610c5f576040517f08c379a0000000000000000000000000000000000000000000000000000000008152600401610c569061214f565b60405180910390fd5b600073ffffffffffffffffffffffffffffffffffffffff16600560009054906101000a900473ffffffffffffffffffffffffffffffffffffffff1673ffffffffffffffffffffffffffffffffffffffff167f8be0079c531659141344cd1fd0a4f28419497f9722a3daafe3b4186f6b6457e060405160405180910390a36000600560006101000a81548173ffffffffffffffffffffffffffffffffffffffff021916908373ffffffffffffffffffffffffffffffffffffffff160217905550565b6000600560009054906101000a900473ffffffffffffffffffffffffffffffffffffffff16905090565b606060048054610d599061240d565b80601f0160208091040260200160405190810160405280929190818152602001828054610d859061240d565b8015610dd25780601f10610da757610100808354040283529160200191610dd2565b820191906000526020600020905b815481529060010190602001808311610db557829003601f168201915b5050505050905090565b6000600754905090565b60075481565b60008060016000610dfb611299565b73ffffffffffffffffffffffffffffffffffffffff1673ffffffffffffffffffffffffffffffffffffffff16815260200190815260200160002060008573ffffffffffffffffffffffffffffffffffffffff1673ffffffffffffffffffffffffffffffffffffffff16815260200190815260200160002054905082811015610eb8576040517f08c379a0000000000000000000000000000000000000000000000000000000008152600401610eaf906121af565b60405180910390fd5b610ed5610ec3611299565b858584610ed09190612342565b6112a1565b600191505092915050565b6000610ef4610eed611299565b848461146c565b6001905092915050565b6000610f08611299565b73ffffffffffffffffffffffffffffffffffffffff16610f26610d20565b73ffffffffffffffffffffffffffffffffffffffff1614610f7c576040517f08c379a0000000000000000000000000000000000000000000000000000000008152600401610f739061214f565b60405180910390fd5b600860405180606001604052808681526020018581526020018473ffffffffffffffffffffffffffffffffffffffff1681525090806001815401808255809150506001900390600052602060002090600302016000909190919091506000820151816000019080519060200190610ff4929190611844565b506020820151816001019080519060200190611011929190611844565b5060408201518160020160006101000a81548173ffffffffffffffffffffffffffffffffffffffff021916908373ffffffffffffffffffffffffffffffffffffffff1602179055505050600190509392505050565b6000600160008473ffffffffffffffffffffffffffffffffffffffff1673ffffffffffffffffffffffffffffffffffffffff16815260200190815260200160002060008373ffffffffffffffffffffffffffffffffffffffff1673ffffffffffffffffffffffffffffffffffffffff16815260200190815260200160002054905092915050565b6110f5611299565b73ffffffffffffffffffffffffffffffffffffffff16611113610d20565b73ffffffffffffffffffffffffffffffffffffffff1614611169576040517f08c379a00000000000000000000000000000000000000000000000000000000081526004016111609061214f565b60405180910390fd5b600073ffffffffffffffffffffffffffffffffffffffff168173ffffffffffffffffffffffffffffffffffffffff1614156111d9576040517f08c379a00000000000000000000000000000000000000000000000000000000081526004016111d0906120cf565b60405180910390fd5b8073ffffffffffffffffffffffffffffffffffffffff16600560009054906101000a900473ffffffffffffffffffffffffffffffffffffffff1673ffffffffffffffffffffffffffffffffffffffff167f8be0079c531659141344cd1fd0a4f28419497f9722a3daafe3b4186f6b6457e060405160405180910390a380600560006101000a81548173ffffffffffffffffffffffffffffffffffffffff021916908373ffffffffffffffffffffffffffffffffffffffff16021790555050565b600033905090565b600073ffffffffffffffffffffffffffffffffffffffff168373ffffffffffffffffffffffffffffffffffffffff161415611311576040517f08c379a00000000000000000000000000000000000000000000000000000000081526004016113089061218f565b60405180910390fd5b600073ffffffffffffffffffffffffffffffffffffffff168273ffffffffffffffffffffffffffffffffffffffff161415611381576040517f08c379a0000000000000000000000000000000000000000000000000000000008152600401611378906120ef565b60405180910390fd5b80600160008573ffffffffffffffffffffffffffffffffffffffff1673ffffffffffffffffffffffffffffffffffffffff16815260200190815260200160002060008473ffffffffffffffffffffffffffffffffffffffff1673ffffffffffffffffffffffffffffffffffffffff168152602001908152602001600020819055508173ffffffffffffffffffffffffffffffffffffffff168373ffffffffffffffffffffffffffffffffffffffff167f8c5be1e5ebec7d5bd14f71427d1e84f3dd0314c0f7b2291e5b200ac8c7c3b9258360405161145f91906121ef565b60405180910390a3505050565b600073ffffffffffffffffffffffffffffffffffffffff168373ffffffffffffffffffffffffffffffffffffffff1614156114dc576040517f08c379a00000000000000000000000000000000000000000000000000000000081526004016114d39061216f565b60405180910390fd5b600073ffffffffffffffffffffffffffffffffffffffff168273ffffffffffffffffffffffffffffffffffffffff16141561154c576040517f08c379a0000000000000000000000000000000000000000000000000000000008152600401611543906120af565b60405180910390fd5b61155783838361183f565b60008060008573ffffffffffffffffffffffffffffffffffffffff1673ffffffffffffffffffffffffffffffffffffffff168152602001908152602001600020549050818110156115dd576040517f08c379a00000000000000000000000000000000000000000000000000000000081526004016115d49061210f565b60405180910390fd5b81816115e99190612342565b6000808673ffffffffffffffffffffffffffffffffffffffff1673ffffffffffffffffffffffffffffffffffffffff16815260200190815260200160002081905550816000808573ffffffffffffffffffffffffffffffffffffffff1673ffffffffffffffffffffffffffffffffffffffff168152602001908152602001600020600082825461167991906122ec565b925050819055508273ffffffffffffffffffffffffffffffffffffffff168473ffffffffffffffffffffffffffffffffffffffff167fddf252ad1be2c89b69c2b068fc378daa952ba7f163c4a11628f55a4df523b3ef846040516116dd91906121ef565b60405180910390a350505050565b600073ffffffffffffffffffffffffffffffffffffffff168273ffffffffffffffffffffffffffffffffffffffff16141561175b576040517f08c379a0000000000000000000000000000000000000000000000000000000008152600401611752906121cf565b60405180910390fd5b6117676000838361183f565b806002600082825461177991906122ec565b92505081905550806000808473ffffffffffffffffffffffffffffffffffffffff1673ffffffffffffffffffffffffffffffffffffffff16815260200190815260200160002060008282546117ce91906122ec565b925050819055508173ffffffffffffffffffffffffffffffffffffffff16600073ffffffffffffffffffffffffffffffffffffffff167fddf252ad1be2c89b69c2b068fc378daa952ba7f163c4a11628f55a4df523b3ef8360405161183391906121ef565b60405180910390a35050565b505050565b8280546118509061240d565b90600052602060002090601f01602090048101928261187257600085556118b9565b82601f1061188b57805160ff19168380011785556118b9565b828001600101855582156118b9579182015b828111156118b857825182559160200191906001019061189d565b5b5090506118c691906118ca565b5090565b5b808211156118e35760008160009055506001016118cb565b5090565b60006118fa6118f584612256565b612225565b90508281526020810184848401111561191257600080fd5b61191d8482856123cb565b509392505050565b60008135905061193481612526565b92915050565b600082601f83011261194b57600080fd5b813561195b8482602086016118e7565b91505092915050565b6000813590506119738161253d565b92915050565b60006020828403121561198b57600080fd5b600061199984828501611925565b91505092915050565b600080604083850312156119b557600080fd5b60006119c385828601611925565b92505060206119d485828601611925565b9150509250929050565b6000806000606084860312156119f357600080fd5b6000611a0186828701611925565b9350506020611a1286828701611925565b9250506040611a2386828701611964565b9150509250925092565b60008060408385031215611a4057600080fd5b6000611a4e85828601611925565b9250506020611a5f85828601611964565b9150509250929050565b600080600060608486031215611a7e57600080fd5b600084013567ffffffffffffffff811115611a9857600080fd5b611aa48682870161193a565b935050602084013567ffffffffffffffff811115611ac157600080fd5b611acd8682870161193a565b9250506040611ade86828701611925565b9150509250925092565b6000611af48383611fc0565b905092915050565b611b0581612376565b82525050565b611b1481612376565b82525050565b6000611b2582612296565b611b2f81856122b9565b935083602082028501611b4185612286565b8060005b85811015611b7d5784840389528151611b5e8582611ae8565b9450611b69836122ac565b925060208a01995050600181019050611b45565b50829750879550505050505092915050565b611b9881612388565b82525050565b6000611ba9826122a1565b611bb381856122ca565b9350611bc38185602086016123da565b611bcc81612515565b840191505092915050565b6000611be2826122a1565b611bec81856122db565b9350611bfc8185602086016123da565b611c0581612515565b840191505092915050565b6000611c1d6023836122db565b91507f45524332303a207472616e7366657220746f20746865207a65726f206164647260008301527f65737300000000000000000000000000000000000000000000000000000000006020830152604082019050919050565b6000611c836026836122db565b91507f4f776e61626c653a206e6577206f776e657220697320746865207a65726f206160008301527f64647265737300000000000000000000000000000000000000000000000000006020830152604082019050919050565b6000611ce96022836122db565b91507f45524332303a20617070726f766520746f20746865207a65726f20616464726560008301527f73730000000000000000000000000000000000000000000000000000000000006020830152604082019050919050565b6000611d4f6026836122db565b91507f45524332303a207472616e7366657220616d6f756e742065786365656473206260008301527f616c616e636500000000000000000000000000000000000000000000000000006020830152604082019050919050565b6000611db56028836122db565b91507f45524332303a207472616e7366657220616d6f756e742065786365656473206160008301527f6c6c6f77616e63650000000000000000000000000000000000000000000000006020830152604082019050919050565b6000611e1b6020836122db565b91507f4f776e61626c653a2063616c6c6572206973206e6f7420746865206f776e65726000830152602082019050919050565b6000611e5b6025836122db565b91507f45524332303a207472616e736665722066726f6d20746865207a65726f20616460008301527f64726573730000000000000000000000000000000000000000000000000000006020830152604082019050919050565b6000611ec16024836122db565b91507f45524332303a20617070726f76652066726f6d20746865207a65726f2061646460008301527f72657373000000000000000000000000000000000000000000000000000000006020830152604082019050919050565b6000611f276025836122db565b91507f45524332303a2064656372656173656420616c6c6f77616e63652062656c6f7760008301527f207a65726f0000000000000000000000000000000000000000000000000000006020830152604082019050919050565b6000611f8d601f836122db565b91507f45524332303a206d696e7420746f20746865207a65726f2061646472657373006000830152602082019050919050565b60006060830160008301518482036000860152611fdd8282611b9e565b91505060208301518482036020860152611ff78282611b9e565b915050604083015161200c6040860182611afc565b508091505092915050565b612020816123b4565b82525050565b61202f816123be565b82525050565b600060208201905061204a6000830184611b0b565b92915050565b6000602082019050818103600083015261206a8184611b1a565b905092915050565b60006020820190506120876000830184611b8f565b92915050565b600060208201905081810360008301526120a78184611bd7565b905092915050565b600060208201905081810360008301526120c881611c10565b9050919050565b600060208201905081810360008301526120e881611c76565b9050919050565b6000602082019050818103600083015261210881611cdc565b9050919050565b6000602082019050818103600083015261212881611d42565b9050919050565b6000602082019050818103600083015261214881611da8565b9050919050565b6000602082019050818103600083015261216881611e0e565b9050919050565b6000602082019050818103600083015261218881611e4e565b9050919050565b600060208201905081810360008301526121a881611eb4565b9050919050565b600060208201905081810360008301526121c881611f1a565b9050919050565b600060208201905081810360008301526121e881611f80565b9050919050565b60006020820190506122046000830184612017565b92915050565b600060208201905061221f6000830184612026565b92915050565b6000604051905081810181811067ffffffffffffffff8211171561224c5761224b6124e6565b5b8060405250919050565b600067ffffffffffffffff821115612271576122706124e6565b5b601f19601f8301169050602081019050919050565b6000819050602082019050919050565b600081519050919050565b600081519050919050565b6000602082019050919050565b600082825260208201905092915050565b600082825260208201905092915050565b600082825260208201905092915050565b60006122f7826123b4565b9150612302836123b4565b9250827fffffffffffffffffffffffffffffffffffffffffffffffffffffffffffffffff0382111561233757612336612488565b5b828201905092915050565b600061234d826123b4565b9150612358836123b4565b92508282101561236b5761236a612488565b5b828203905092915050565b600061238182612394565b9050919050565b60008115159050919050565b600073ffffffffffffffffffffffffffffffffffffffff82169050919050565b6000819050919050565b600060ff82169050919050565b82818337600083830152505050565b60005b838110156123f85780820151818401526020810190506123dd565b83811115612407576000848401525b50505050565b6000600282049050600182168061242557607f821691505b60208210811415612439576124386124b7565b5b50919050565b600061244a826123b4565b91507fffffffffffffffffffffffffffffffffffffffffffffffffffffffffffffffff82141561247d5761247c612488565b5b600182019050919050565b7f4e487b7100000000000000000000000000000000000000000000000000000000600052601160045260246000fd5b7f4e487b7100000000000000000000000000000000000000000000000000000000600052602260045260246000fd5b7f4e487b7100000000000000000000000000000000000000000000000000000000600052604160045260246000fd5b6000601f19601f8301169050919050565b61252f81612376565b811461253a57600080fd5b50565b612546816123b4565b811461255157600080fd5b5056fea2646970667358221220e656ca51a482f571ae6f7be02788138c8c1c185969a2bd3f074e3aefd4a3f88e64736f6c63430008000033",
  "immutableReferences": {},
  "source": "// SPDX-License-Identifier: MIT\npragma solidity ^0.8.0;\n\nimport \"@openzeppelin/contracts/token/ERC20/ERC20.sol\";\nimport \"@openzeppelin/contracts/access/Ownable.sol\";\n\ncontract CSTokenFactory is ERC20, Ownable {\n    \n    address public wallet;\n    \n    constructor(string memory _name, string memory _symbol, address _owner, address _wallet) ERC20(_name, _symbol) {\n        wallet = _wallet;\n        transferOwnership(_owner);\n    }\n    \n    uint256 public price = 10000000000000000; // Wei\n    \n    \n    function getPrice() external view returns(uint256) {\n        return price;\n    }\n    \n    struct Asset {\n        string symbol;\n        string weight;\n        address id;\n    }\n    \n    Asset[] assets;\n    \n    \n    function addAsset(string memory _symbol, string memory _weight, address _id) public onlyOwner returns(bool) {\n        assets.push(Asset(_symbol, _weight, _id));\n        return true;\n    }\n    \n    function modifyAsset(string memory _symbol, string memory _weight, address _id) public onlyOwner returns(bool) {\n        for (uint i = 0; i < assets.length; i++) {\n            if (assets[i].id == _id) {\n                assets[i] = Asset(_symbol, _weight, _id);\n            }\n        }\n        return true;\n    }\n    \n    function mint(address _buyer, uint256 amount) public onlyOwner returns(bool) {\n        _mint(_buyer, amount);\n        return true;\n    }\n    \n    \n    function getAssets() public view returns(Asset[] memory) {\n        return assets;\n    }\n    \n    \n    \n}",
  "sourcePath": "/Users/santiagomarcano/Documents/common-sense/dapp/contracts/CSTokenFactory.sol",
  "compiler": {
    "name": "solc",
    "version": "0.8.0+commit.c7dfd78e.Emscripten.clang"
  },
  "schemaVersion": "3.3.4",
  "updatedAt": "2021-05-15T09:09:57.566Z",
  "networkType": "ethereum",
  "devdoc": {
    "kind": "dev",
    "methods": {
      "allowance(address,address)": {
        "details": "See {IERC20-allowance}."
      },
      "approve(address,uint256)": {
        "details": "See {IERC20-approve}. Requirements: - `spender` cannot be the zero address."
      },
      "balanceOf(address)": {
        "details": "See {IERC20-balanceOf}."
      },
      "decimals()": {
        "details": "Returns the number of decimals used to get its user representation. For example, if `decimals` equals `2`, a balance of `505` tokens should be displayed to a user as `5,05` (`505 / 10 ** 2`). Tokens usually opt for a value of 18, imitating the relationship between Ether and Wei. This is the value {ERC20} uses, unless this function is overloaded; NOTE: This information is only used for _display_ purposes: it in no way affects any of the arithmetic of the contract, including {IERC20-balanceOf} and {IERC20-transfer}."
      },
      "decreaseAllowance(address,uint256)": {
        "details": "Atomically decreases the allowance granted to `spender` by the caller. This is an alternative to {approve} that can be used as a mitigation for problems described in {IERC20-approve}. Emits an {Approval} event indicating the updated allowance. Requirements: - `spender` cannot be the zero address. - `spender` must have allowance for the caller of at least `subtractedValue`."
      },
      "increaseAllowance(address,uint256)": {
        "details": "Atomically increases the allowance granted to `spender` by the caller. This is an alternative to {approve} that can be used as a mitigation for problems described in {IERC20-approve}. Emits an {Approval} event indicating the updated allowance. Requirements: - `spender` cannot be the zero address."
      },
      "name()": {
        "details": "Returns the name of the token."
      },
      "owner()": {
        "details": "Returns the address of the current owner."
      },
      "renounceOwnership()": {
        "details": "Leaves the contract without owner. It will not be possible to call `onlyOwner` functions anymore. Can only be called by the current owner. NOTE: Renouncing ownership will leave the contract without an owner, thereby removing any functionality that is only available to the owner."
      },
      "symbol()": {
        "details": "Returns the symbol of the token, usually a shorter version of the name."
      },
      "totalSupply()": {
        "details": "See {IERC20-totalSupply}."
      },
      "transfer(address,uint256)": {
        "details": "See {IERC20-transfer}. Requirements: - `recipient` cannot be the zero address. - the caller must have a balance of at least `amount`."
      },
      "transferFrom(address,address,uint256)": {
        "details": "See {IERC20-transferFrom}. Emits an {Approval} event indicating the updated allowance. This is not required by the EIP. See the note at the beginning of {ERC20}. Requirements: - `sender` and `recipient` cannot be the zero address. - `sender` must have a balance of at least `amount`. - the caller must have allowance for ``sender``'s tokens of at least `amount`."
      },
      "transferOwnership(address)": {
        "details": "Transfers ownership of the contract to a new account (`newOwner`). Can only be called by the current owner."
      }
    },
    "version": 1
  },
  "userdoc": {
    "kind": "user",
    "methods": {},
    "version": 1
  }
}