{
  "contractName": "Found",
  "abi": [
    {
      "inputs": [
        {
          "internalType": "contract TCST",
          "name": "t",
          "type": "address"
        }
      ],
      "stateMutability": "nonpayable",
      "type": "constructor"
    },
    {
      "anonymous": false,
      "inputs": [
        {
          "indexed": true,
          "internalType": "address",
          "name": "user",
          "type": "address"
        },
        {
          "indexed": false,
          "internalType": "uint256",
          "name": "value",
          "type": "uint256"
        },
        {
          "indexed": false,
          "internalType": "uint256",
          "name": "timeStart",
          "type": "uint256"
        }
      ],
      "name": "Deposit",
      "type": "event"
    },
    {
      "inputs": [
        {
          "internalType": "address",
          "name": "",
          "type": "address"
        }
      ],
      "name": "depositStart",
      "outputs": [
        {
          "internalType": "uint256",
          "name": "",
          "type": "uint256"
        }
      ],
      "stateMutability": "view",
      "type": "function",
      "constant": true
    },
    {
      "inputs": [
        {
          "internalType": "address",
          "name": "",
          "type": "address"
        }
      ],
      "name": "etherBalanceOf",
      "outputs": [
        {
          "internalType": "uint256",
          "name": "",
          "type": "uint256"
        }
      ],
      "stateMutability": "view",
      "type": "function",
      "constant": true
    },
    {
      "inputs": [
        {
          "internalType": "address",
          "name": "",
          "type": "address"
        }
      ],
      "name": "isDeposited",
      "outputs": [
        {
          "internalType": "bool",
          "name": "",
          "type": "bool"
        }
      ],
      "stateMutability": "view",
      "type": "function",
      "constant": true
    },
    {
      "inputs": [],
      "name": "deposit",
      "outputs": [],
      "stateMutability": "payable",
      "type": "function",
      "payable": true
    },
    {
      "inputs": [],
      "name": "withdraw",
      "outputs": [],
      "stateMutability": "payable",
      "type": "function",
      "payable": true
    }
  ],
  "bytecode": "0x608060405234801561001057600080fd5b506040516105b73803806105b78339818101604052810190610032919061008d565b806000806101000a81548173ffffffffffffffffffffffffffffffffffffffff021916908373ffffffffffffffffffffffffffffffffffffffff16021790555050610111565b600081519050610087816100fa565b92915050565b60006020828403121561009f57600080fd5b60006100ad84828501610078565b91505092915050565b60006100c1826100da565b9050919050565b60006100d3826100b6565b9050919050565b600073ffffffffffffffffffffffffffffffffffffffff82169050919050565b610103816100c8565b811461010e57600080fd5b50565b610497806101206000396000f3fe60806040526004361061004a5760003560e01c8063179fc99f1461004f5780633ccfd60b1461008c5780637373202414610096578063d0e30db0146100d3578063ff87930a146100dd575b600080fd5b34801561005b57600080fd5b50610076600480360381019061007191906102d7565b61011a565b6040516100839190610339565b60405180910390f35b610094610132565b005b3480156100a257600080fd5b506100bd60048036038101906100b891906102d7565b610134565b6040516100ca919061031e565b60405180910390f35b6100db610154565b005b3480156100e957600080fd5b5061010460048036038101906100ff91906102d7565b6102aa565b6040516101119190610339565b60405180910390f35b60016020528060005260406000206000915090505481565b565b60036020528060005260406000206000915054906101000a900460ff1681565b34600160003373ffffffffffffffffffffffffffffffffffffffff1673ffffffffffffffffffffffffffffffffffffffff16815260200190815260200160002060008282546101a3919061037d565b9250508190555042600260003373ffffffffffffffffffffffffffffffffffffffff1673ffffffffffffffffffffffffffffffffffffffff16815260200190815260200160002060008282546101f9919061037d565b925050819055506001600360003373ffffffffffffffffffffffffffffffffffffffff1673ffffffffffffffffffffffffffffffffffffffff16815260200190815260200160002060006101000a81548160ff0219169083151502179055503373ffffffffffffffffffffffffffffffffffffffff167f90890809c654f11d6e72a28fa60149770a0d11ec6c92319d6ceb2bb0a4ea1a1534426040516102a0929190610354565b60405180910390a2565b60026020528060005260406000206000915090505481565b6000813590506102d18161044a565b92915050565b6000602082840312156102e957600080fd5b60006102f7848285016102c2565b91505092915050565b610309816103e5565b82525050565b61031881610411565b82525050565b60006020820190506103336000830184610300565b92915050565b600060208201905061034e600083018461030f565b92915050565b6000604082019050610369600083018561030f565b610376602083018461030f565b9392505050565b600061038882610411565b915061039383610411565b9250827fffffffffffffffffffffffffffffffffffffffffffffffffffffffffffffffff038211156103c8576103c761041b565b5b828201905092915050565b60006103de826103f1565b9050919050565b60008115159050919050565b600073ffffffffffffffffffffffffffffffffffffffff82169050919050565b6000819050919050565b7f4e487b7100000000000000000000000000000000000000000000000000000000600052601160045260246000fd5b610453816103d3565b811461045e57600080fd5b5056fea2646970667358221220badee168f4ce9ee9e0ad46cb6ad680912b72a75bde7210a3b5ba6fa44ba684a964736f6c63430008000033",
  "immutableReferences": {},
  "source": "// SPDX-License-Identifier: MIT\npragma solidity ^0.8.0;\n\n\nimport \"./TCST.sol\";\n\ncontract Found {\n\n    TCST private token;\n    \n    mapping(address => uint) public etherBalanceOf;\n    mapping(address => uint) public depositStart;\n    mapping(address => bool) public isDeposited;\n    \n    event Deposit(address indexed user, uint value, uint timeStart);\n\n    constructor(TCST t) public {\n        token = t;\n    }\n\n    function deposit() payable public {\n\n        etherBalanceOf[msg.sender] += msg.value; \n        depositStart[msg.sender] += block.timestamp; \n        isDeposited[msg.sender] = true;\n\n        emit Deposit(msg.sender, msg.value, block.timestamp);\n\n    }\n\n     function withdraw() payable public {\n\n    }\n\n\n \n}",
  "sourcePath": "/Users/santiagomarcano/Documents/blockchain/dapp/contracts/Found.sol",
  "compiler": {
    "name": "solc",
    "version": "0.8.0+commit.c7dfd78e.Emscripten.clang"
  },
  "schemaVersion": "3.3.4",
  "updatedAt": "2021-04-22T13:48:13.472Z",
  "networkType": "ethereum",
  "devdoc": {
    "kind": "dev",
    "methods": {},
    "version": 1
  },
  "userdoc": {
    "kind": "user",
    "methods": {},
    "version": 1
  }
}